:1008BA003F065B4F666D7D077F6F7FBFDFEFF7FBFC
:0208CA00FDFE31
:10089A00E4F508F509F50B758910F58B758DDCD231
:1008AA00ABD2AFD28EAB0CAD0AAF0812080080F5FE
:03001B0002085E7A
:10085E00C0E0C0D0758B00758DDC0509E509C39429
:10086E006440247509000508E508943C4019750894
:10087E0000050AE50A943C400E750A00050CE50CCD
:0C088E0094184003750C00D0D0D0E0326C
:10080000E4F580E50B9008C493F5A0E50BB408006F
:100810005046900819F8282873020831020834025B
:10082000083702083902083C020837020844020867
:100830004DEF8011EF80178006ED8009ED800F7578
:1008400080408014EB75F00A84E5F08005EB75F0CC
:0E0850000A849008BA93F580050B530B07221B
:030000000208CC27
:0C08CC00787FE4F6D8FD75810C02089AD4
:00000001FF
